{
  "address": "0x33CD3dA013587B15a7D19d8816c1ABa33a0FB49F",
  "abi": [
    {
      "inputs": [],
      "name": "NAME",
      "outputs": [
        {
          "internalType": "string",
          "name": "",
          "type": "string"
        }
      ],
      "stateMutability": "view",
      "type": "function"
    },
    {
      "inputs": [],
      "name": "VERSION",
      "outputs": [
        {
          "internalType": "string",
          "name": "",
          "type": "string"
        }
      ],
      "stateMutability": "view",
      "type": "function"
    },
    {
      "inputs": [
        {
          "internalType": "address",
          "name": "",
          "type": "address"
        },
        {
          "internalType": "address",
          "name": "",
          "type": "address"
        },
        {
          "internalType": "uint256[]",
          "name": "",
          "type": "uint256[]"
        },
        {
          "internalType": "uint256[]",
          "name": "",
          "type": "uint256[]"
        },
        {
          "internalType": "bytes",
          "name": "",
          "type": "bytes"
        }
      ],
      "name": "onERC1155BatchReceived",
      "outputs": [
        {
          "internalType": "bytes4",
          "name": "",
          "type": "bytes4"
        }
      ],
      "stateMutability": "pure",
      "type": "function"
    },
    {
      "inputs": [
        {
          "internalType": "address",
          "name": "",
          "type": "address"
        },
        {
          "internalType": "address",
          "name": "",
          "type": "address"
        },
        {
          "internalType": "uint256",
          "name": "",
          "type": "uint256"
        },
        {
          "internalType": "uint256",
          "name": "",
          "type": "uint256"
        },
        {
          "internalType": "bytes",
          "name": "",
          "type": "bytes"
        }
      ],
      "name": "onERC1155Received",
      "outputs": [
        {
          "internalType": "bytes4",
          "name": "",
          "type": "bytes4"
        }
      ],
      "stateMutability": "pure",
      "type": "function"
    },
    {
      "inputs": [
        {
          "internalType": "address",
          "name": "",
          "type": "address"
        },
        {
          "internalType": "address",
          "name": "",
          "type": "address"
        },
        {
          "internalType": "uint256",
          "name": "",
          "type": "uint256"
        },
        {
          "internalType": "bytes",
          "name": "",
          "type": "bytes"
        }
      ],
      "name": "onERC721Received",
      "outputs": [
        {
          "internalType": "bytes4",
          "name": "",
          "type": "bytes4"
        }
      ],
      "stateMutability": "pure",
      "type": "function"
    },
    {
      "inputs": [
        {
          "internalType": "bytes4",
          "name": "interfaceId",
          "type": "bytes4"
        }
      ],
      "name": "supportsInterface",
      "outputs": [
        {
          "internalType": "bool",
          "name": "",
          "type": "bool"
        }
      ],
      "stateMutability": "view",
      "type": "function"
    },
    {
      "inputs": [
        {
          "internalType": "address",
          "name": "",
          "type": "address"
        },
        {
          "internalType": "address",
          "name": "",
          "type": "address"
        },
        {
          "internalType": "address",
          "name": "",
          "type": "address"
        },
        {
          "internalType": "uint256",
          "name": "",
          "type": "uint256"
        },
        {
          "internalType": "bytes",
          "name": "",
          "type": "bytes"
        },
        {
          "internalType": "bytes",
          "name": "",
          "type": "bytes"
        }
      ],
      "name": "tokensReceived",
      "outputs": [],
      "stateMutability": "pure",
      "type": "function"
    }
  ],
  "transactionHash": "0x8867a38a901376b2817c9228b6ca450ba2e5a3ed2728435e70ac7717be94ed1c",
  "args": [],
  "numDeployments": 1,
  "solcInputHash": "1900b8af642c5842b883eb4064bff840",
  "bytecode": "0x608060405234801561001057600080fd5b5061058a806100206000396000f3fe608060405234801561001057600080fd5b506004361061007c5760003560e01c8063a3f4df7e1161005b578063a3f4df7e146100fb578063bc197c8114610144578063f23a6e6114610166578063ffa1ad741461018657600080fd5b806223de291461008157806301ffc9a71461009b578063150b7a02146100c3575b600080fd5b61009961008f3660046102cb565b5050505050505050565b005b6100ae6100a93660046104f7565b6101c2565b60405190151581526020015b60405180910390f35b6100e26100d1366004610410565b630a85bd0160e11b95945050505050565b6040516001600160e01b031990911681526020016100ba565b6101376040518060400160405280601881526020017f44656661756c742043616c6c6261636b2048616e646c6572000000000000000081525081565b6040516100ba9190610528565b6100e2610152366004610376565b63bc197c8160e01b98975050505050505050565b6100e261017436600461047f565b63f23a6e6160e01b9695505050505050565b6101376040518060400160405280600581526020017f312e302e3000000000000000000000000000000000000000000000000000000081525081565b60006001600160e01b03198216630271189760e51b14806101f357506001600160e01b03198216630a85bd0160e11b145b8061020e57506001600160e01b031982166301ffc9a760e01b145b92915050565b803573ffffffffffffffffffffffffffffffffffffffff8116811461023857600080fd5b919050565b60008083601f84011261024f57600080fd5b50813567ffffffffffffffff81111561026757600080fd5b6020830191508360208260051b850101111561028257600080fd5b9250929050565b60008083601f84011261029b57600080fd5b50813567ffffffffffffffff8111156102b357600080fd5b60208301915083602082850101111561028257600080fd5b60008060008060008060008060c0898b0312156102e757600080fd5b6102f089610214565b97506102fe60208a01610214565b965061030c60408a01610214565b955060608901359450608089013567ffffffffffffffff8082111561033057600080fd5b61033c8c838d01610289565b909650945060a08b013591508082111561035557600080fd5b506103628b828c01610289565b999c989b5096995094979396929594505050565b60008060008060008060008060a0898b03121561039257600080fd5b61039b89610214565b97506103a960208a01610214565b9650604089013567ffffffffffffffff808211156103c657600080fd5b6103d28c838d0161023d565b909850965060608b01359150808211156103eb57600080fd5b6103f78c838d0161023d565b909650945060808b013591508082111561035557600080fd5b60008060008060006080868803121561042857600080fd5b61043186610214565b945061043f60208701610214565b935060408601359250606086013567ffffffffffffffff81111561046257600080fd5b61046e88828901610289565b969995985093965092949392505050565b60008060008060008060a0878903121561049857600080fd5b6104a187610214565b95506104af60208801610214565b94506040870135935060608701359250608087013567ffffffffffffffff8111156104d957600080fd5b6104e589828a01610289565b979a9699509497509295939492505050565b60006020828403121561050957600080fd5b81356001600160e01b03198116811461052157600080fd5b9392505050565b600060208083528351808285015260005b8181101561055557858101830151858201604001528201610539565b81811115610567576000604083870101525b50601f01601f191692909201604001939250505056fea164736f6c6343000807000a",
  "devdoc": {
    "author": "Richard Meissner - <richard@gnosis.pm>",
    "kind": "dev",
    "methods": {
      "supportsInterface(bytes4)": {
        "details": "Returns true if this contract implements the interface defined by `interfaceId`. See the corresponding https://eips.ethereum.org/EIPS/eip-165#how-interfaces-are-identified[EIP section] to learn more about how these ids are created. This function call must use less than 30 000 gas."
      }
    },
    "title": "Default Callback Handler - returns true for known token callbacks",
    "version": 1
  },
  "userdoc": {
    "kind": "user",
    "methods": {},
    "version": 1
  },
  "storageLayout": {
    "storage": [],
    "types": null
  }
}