{
  "address": "0xf087Bac2119a5209cc2532ECd4A378fdf5aC1517",
  "abi": [
    {
      "anonymous": false,
      "inputs": [
        {
          "indexed": false,
          "internalType": "contract GnosisSafeProxy",
          "name": "proxy",
          "type": "address"
        },
        {
          "indexed": false,
          "internalType": "address",
          "name": "singleton",
          "type": "address"
        }
      ],
      "name": "ProxyCreation",
      "type": "event"
    },
    {
      "inputs": [
        {
          "internalType": "address",
          "name": "_singleton",
          "type": "address"
        },
        {
          "internalType": "bytes",
          "name": "initializer",
          "type": "bytes"
        },
        {
          "internalType": "uint256",
          "name": "saltNonce",
          "type": "uint256"
        }
      ],
      "name": "calculateCreateProxyWithNonceAddress",
      "outputs": [
        {
          "internalType": "contract GnosisSafeProxy",
          "name": "proxy",
          "type": "address"
        }
      ],
      "stateMutability": "nonpayable",
      "type": "function"
    },
    {
      "inputs": [
        {
          "internalType": "address",
          "name": "singleton",
          "type": "address"
        },
        {
          "internalType": "bytes",
          "name": "data",
          "type": "bytes"
        }
      ],
      "name": "createProxy",
      "outputs": [
        {
          "internalType": "contract GnosisSafeProxy",
          "name": "proxy",
          "type": "address"
        }
      ],
      "stateMutability": "nonpayable",
      "type": "function"
    },
    {
      "inputs": [
        {
          "internalType": "address",
          "name": "_singleton",
          "type": "address"
        },
        {
          "internalType": "bytes",
          "name": "initializer",
          "type": "bytes"
        },
        {
          "internalType": "uint256",
          "name": "saltNonce",
          "type": "uint256"
        },
        {
          "internalType": "contract IProxyCreationCallback",
          "name": "callback",
          "type": "address"
        }
      ],
      "name": "createProxyWithCallback",
      "outputs": [
        {
          "internalType": "contract GnosisSafeProxy",
          "name": "proxy",
          "type": "address"
        }
      ],
      "stateMutability": "nonpayable",
      "type": "function"
    },
    {
      "inputs": [
        {
          "internalType": "address",
          "name": "_singleton",
          "type": "address"
        },
        {
          "internalType": "bytes",
          "name": "initializer",
          "type": "bytes"
        },
        {
          "internalType": "uint256",
          "name": "saltNonce",
          "type": "uint256"
        }
      ],
      "name": "createProxyWithNonce",
      "outputs": [
        {
          "internalType": "contract GnosisSafeProxy",
          "name": "proxy",
          "type": "address"
        }
      ],
      "stateMutability": "nonpayable",
      "type": "function"
    },
    {
      "inputs": [],
      "name": "proxyCreationCode",
      "outputs": [
        {
          "internalType": "bytes",
          "name": "",
          "type": "bytes"
        }
      ],
      "stateMutability": "pure",
      "type": "function"
    },
    {
      "inputs": [],
      "name": "proxyRuntimeCode",
      "outputs": [
        {
          "internalType": "bytes",
          "name": "",
          "type": "bytes"
        }
      ],
      "stateMutability": "pure",
      "type": "function"
    }
  ],
  "transactionHash": "0x9ebdb937b9eb8116629a4fb27bc47bb5b96b70ebaab0f084f8109a4934852ac8",
  "args": [],
  "numDeployments": 1,
  "solcInputHash": "601d339a3891b2cf27b0065b723064bd",
  "bytecode": "0x608060405234801561001057600080fd5b506109d0806100206000396000f3fe608060405234801561001057600080fd5b50600436106100725760003560e01c806361b69abd1161005057806361b69abd146100cf578063addacc0f146100e2578063d18af54d146100ea57600080fd5b80631688f0b9146100775780632500510e146100a757806353e5d935146100ba575b600080fd5b61008a610085366004610644565b6100fd565b6040516001600160a01b0390911681526020015b60405180910390f35b61008a6100b5366004610569565b610179565b6100c261020e565b60405161009e9190610757565b61008a6100dd3660046105f4565b610238565b6100c26102e2565b61008a6100f836600461069d565b6102f4565b600061010a8484846103ca565b83519091501561012f5760008060008551602087016000865af1141561012f57600080fd5b604080516001600160a01b038084168252861660208201527f4f51faf6c4561ff95f067657e43439f0f856d97c04d9ec9070a6199ad418e235910160405180910390a19392505050565b60006101bd8585858080601f0160208091040260200160405190810160405280939291908181526020018383808284376000920191909152508792506103ca915050565b6040516bffffffffffffffffffffffff19606083901b16602082015290915060340160408051601f198184030181529082905262461bcd60e51b825261020591600401610757565b60405180910390fd5b606060405180602001610220906104c3565b601f1982820381018352601f90910116604052919050565b600082604051610247906104c3565b6001600160a01b039091168152602001604051809103906000f080158015610273573d6000803e3d6000fd5b508251909150156102995760008060008451602086016000865af1141561029957600080fd5b604080516001600160a01b038084168252851660208201527f4f51faf6c4561ff95f067657e43439f0f856d97c04d9ec9070a6199ad418e235910160405180910390a192915050565b606060405180602001610220906104d0565b600080838360405160200161032592919091825260601b6bffffffffffffffffffffffff1916602082015260340190565b6040516020818303038152906040528051906020012060001c905061034b8686836100fd565b91506001600160a01b038316156103c1576040516303ca56a360e31b81526001600160a01b03841690631e52b5189061038e9085908a908a908a90600401610771565b600060405180830381600087803b1580156103a857600080fd5b505af11580156103bc573d6000803e3d6000fd5b505050505b50949350505050565b6000808380519060200120836040516020016103f0929190918252602082015260400190565b60405160208183030381529060405280519060200120905060006040518060200161041a906104c3565b601f1982820381018352601f90910116604081905261044791906001600160a01b03891690602001610735565b6040516020818303038152906040529050818151826020016000f592506001600160a01b0383166104ba5760405162461bcd60e51b815260206004820152601360248201527f437265617465322063616c6c206661696c6564000000000000000000000000006044820152606401610205565b50509392505050565b6101578061080d83390190565b60608061096483390190565b600082601f8301126104ed57600080fd5b813567ffffffffffffffff80821115610508576105086107de565b604051601f8301601f19908116603f01168101908282118183101715610530576105306107de565b8160405283815286602085880101111561054957600080fd5b836020870160208301376000602085830101528094505050505092915050565b6000806000806060858703121561057f57600080fd5b843561058a816107f4565b9350602085013567ffffffffffffffff808211156105a757600080fd5b818701915087601f8301126105bb57600080fd5b8135818111156105ca57600080fd5b8860208285010111156105dc57600080fd5b95986020929092019750949560400135945092505050565b6000806040838503121561060757600080fd5b8235610612816107f4565b9150602083013567ffffffffffffffff81111561062e57600080fd5b61063a858286016104dc565b9150509250929050565b60008060006060848603121561065957600080fd5b8335610664816107f4565b9250602084013567ffffffffffffffff81111561068057600080fd5b61068c868287016104dc565b925050604084013590509250925092565b600080600080608085870312156106b357600080fd5b84356106be816107f4565b9350602085013567ffffffffffffffff8111156106da57600080fd5b6106e6878288016104dc565b9350506040850135915060608501356106fe816107f4565b939692955090935050565b600081518084526107218160208601602086016107ae565b601f01601f19169290920160200192915050565b600083516107478184602088016107ae565b9190910191825250602001919050565b60208152600061076a6020830184610709565b9392505050565b60006001600160a01b0380871683528086166020840152506080604083015261079d6080830185610709565b905082606083015295945050505050565b60005b838110156107c95781810151838201526020016107b1565b838111156107d8576000848401525b50505050565b634e487b7160e01b600052604160045260246000fd5b6001600160a01b038116811461080957600080fd5b5056fe608060405234801561001057600080fd5b5060405161015738038061015783398101604081905261002f916100b9565b6001600160a01b0381166100945760405162461bcd60e51b815260206004820152602260248201527f496e76616c69642073696e676c65746f6e20616464726573732070726f766964604482015261195960f21b606482015260840160405180910390fd5b600080546001600160a01b0319166001600160a01b03929092169190911790556100e9565b6000602082840312156100cb57600080fd5b81516001600160a01b03811681146100e257600080fd5b9392505050565b6060806100f76000396000f3fe60806040526000805473ffffffffffffffffffffffffffffffffffffffff16813563530ca43760e11b1415603557808252602082f35b3682833781823684845af490503d82833e80604e573d82fd5b503d81f3fea164736f6c6343000807000a60806040526000805473ffffffffffffffffffffffffffffffffffffffff16813563530ca43760e11b1415603557808252602082f35b3682833781823684845af490503d82833e80604e573d82fd5b503d81f3fea164736f6c6343000807000aa164736f6c6343000807000a",
  "devdoc": {
    "author": "Stefan George - <stefan@gnosis.pm>",
    "kind": "dev",
    "methods": {
      "calculateCreateProxyWithNonceAddress(address,bytes,uint256)": {
        "details": "Allows to get the address for a new proxy contact created via `createProxyWithNonce`      This method is only meant for address calculation purpose when you use an initializer that would revert,      therefore the response is returned with a revert. When calling this method set `from` to the address of the proxy factory.",
        "params": {
          "_singleton": "Address of singleton contract.",
          "initializer": "Payload for message call sent to new proxy contract.",
          "saltNonce": "Nonce that will be used to generate the salt to calculate the address of the new proxy contract."
        }
      },
      "createProxy(address,bytes)": {
        "details": "Allows to create new proxy contact and execute a message call to the new proxy within one transaction.",
        "params": {
          "data": "Payload for message call sent to new proxy contract.",
          "singleton": "Address of singleton contract."
        }
      },
      "createProxyWithCallback(address,bytes,uint256,address)": {
        "details": "Allows to create new proxy contact, execute a message call to the new proxy and call a specified callback within one transaction",
        "params": {
          "_singleton": "Address of singleton contract.",
          "callback": "Callback that will be invoced after the new proxy contract has been successfully deployed and initialized.",
          "initializer": "Payload for message call sent to new proxy contract.",
          "saltNonce": "Nonce that will be used to generate the salt to calculate the address of the new proxy contract."
        }
      },
      "createProxyWithNonce(address,bytes,uint256)": {
        "details": "Allows to create new proxy contact and execute a message call to the new proxy within one transaction.",
        "params": {
          "_singleton": "Address of singleton contract.",
          "initializer": "Payload for message call sent to new proxy contract.",
          "saltNonce": "Nonce that will be used to generate the salt to calculate the address of the new proxy contract."
        }
      },
      "proxyCreationCode()": {
        "details": "Allows to retrieve the creation code used for the Proxy deployment. With this it is easily possible to calculate predicted address."
      },
      "proxyRuntimeCode()": {
        "details": "Allows to retrieve the runtime code of a deployed Proxy. This can be used to check that the expected Proxy was deployed."
      }
    },
    "title": "Proxy Factory - Allows to create new proxy contact and execute a message call to the new proxy within one transaction.",
    "version": 1
  },
  "userdoc": {
    "kind": "user",
    "methods": {},
    "version": 1
  },
  "storageLayout": {
    "storage": [],
    "types": null
  }
}