{
  "address": "0xA66C256ea469481fAd30F31718D46C2bf9C6EFDc",
  "abi": [
    {
      "inputs": [
        {
          "internalType": "bytes",
          "name": "transactions",
          "type": "bytes"
        }
      ],
      "name": "multiSend",
      "outputs": [],
      "stateMutability": "payable",
      "type": "function"
    }
  ],
  "transactionHash": "0x5540233fb3f3326bb3a4407215ed18c2dd05573063dc2511a9fadb1ebd884a5c",
  "args": [],
  "numDeployments": 1,
  "solcInputHash": "abace7702e0bc93b0a7452ede7dbc7fc",
  "bytecode": "0x608060405234801561001057600080fd5b50610185806100206000396000f3fe60806040526004361061001e5760003560e01c80638d80ff0a14610023575b600080fd5b6100366100313660046100b1565b610038565b005b805160205b818110156100ac578083015160f81c6001820184015160601c601583018501516035840186015160558501870160008560008114610082576001811461001e5761008e565b6000808585888a5af191505b508061009957600080fd5b505080605501850194505050505061003d565b505050565b6000602082840312156100c357600080fd5b813567ffffffffffffffff808211156100db57600080fd5b818401915084601f8301126100ef57600080fd5b81358181111561010157610101610162565b604051601f8201601f19908116603f0116810190838211818310171561012957610129610162565b8160405282815287602084870101111561014257600080fd5b826020860160208301376000928101602001929092525095945050505050565b634e487b7160e01b600052604160045260246000fdfea164736f6c6343000807000a",
  "devdoc": {
    "author": "Stefan George - <stefan@gnosis.io>Richard Meissner - <richard@gnosis.io>",
    "kind": "dev",
    "methods": {
      "multiSend(bytes)": {
        "details": "Sends multiple transactions and reverts all if one fails.",
        "params": {
          "transactions": "Encoded transactions. Each transaction is encoded as a packed bytes of                     operation has to be uint8(0) in this version (=> 1 byte),                     to as a address (=> 20 bytes),                     value as a uint256 (=> 32 bytes),                     data length as a uint256 (=> 32 bytes),                     data as bytes.                     see abi.encodePacked for more information on packed encoding"
        }
      }
    },
    "title": "Multi Send Call Only - Allows to batch multiple transactions into one, but only calls",
    "version": 1
  },
  "userdoc": {
    "kind": "user",
    "methods": {
      "multiSend(bytes)": {
        "notice": "The code is for most part the same as the normal MultiSend (to keep compatibility),         but reverts if a transaction tries to use a delegatecall.This method is payable as delegatecalls keep the msg.value from the previous call         If the calling method (e.g. execTransaction) received ETH this would revert otherwise"
      }
    },
    "notice": "The guard logic is not required here as this contract doesn't support nested delegate calls",
    "version": 1
  },
  "storageLayout": {
    "storage": [],
    "types": null
  }
}