{
  "address": "0x7ac98797b98D726F23ad963eDc40F0af22ef5ad1",
  "abi": [
    {
      "inputs": [],
      "stateMutability": "nonpayable",
      "type": "constructor"
    },
    {
      "inputs": [
        {
          "internalType": "address",
          "name": "to",
          "type": "address"
        },
        {
          "internalType": "uint256",
          "name": "value",
          "type": "uint256"
        },
        {
          "internalType": "bytes",
          "name": "data",
          "type": "bytes"
        },
        {
          "internalType": "enum Enum.Operation",
          "name": "operation",
          "type": "uint8"
        }
      ],
      "name": "simulate",
      "outputs": [
        {
          "internalType": "uint256",
          "name": "estimate",
          "type": "uint256"
        },
        {
          "internalType": "bool",
          "name": "success",
          "type": "bool"
        },
        {
          "internalType": "bytes",
          "name": "returnData",
          "type": "bytes"
        }
      ],
      "stateMutability": "nonpayable",
      "type": "function"
    }
  ],
  "transactionHash": "0x2a75ce194342ec05cecae421053453eb7d2b05fbb9bada940542a359b73f2689",
  "args": [],
  "numDeployments": 1,
  "solcInputHash": "1900b8af642c5842b883eb4064bff840",
  "bytecode": "0x60a060405234801561001057600080fd5b5030606081901b6080526103516100316000396000607801526103516000f3fe608060405234801561001057600080fd5b506004361061002b5760003560e01c80631c5fb21114610030575b600080fd5b61004361003e3660046101ea565b61005b565b604051610052939291906102a3565b60405180910390f35b60008060603073ffffffffffffffffffffffffffffffffffffffff7f00000000000000000000000000000000000000000000000000000000000000001614156101105760405162461bcd60e51b815260206004820152603960248201527f53696d756c61746554784163636573736f722073686f756c64206f6e6c79206260448201527f652063616c6c6564207669612064656c656761746563616c6c00000000000000606482015260840160405180910390fd5b60005a9050610158898989898080601f0160208091040260200160405190810160405280939291908181526020018383808284376000920191909152508b925050505a61018e565b92505a6101659082610309565b935060405160203d0181016040523d81523d6000602083013e8092505050955095509592505050565b600060018360018111156101a4576101a461032e565b14156101bd576000808551602087018986f490506101cd565b600080855160208701888a87f190505b95945050505050565b8035600281106101e557600080fd5b919050565b60008060008060006080868803121561020257600080fd5b853573ffffffffffffffffffffffffffffffffffffffff8116811461022657600080fd5b945060208601359350604086013567ffffffffffffffff8082111561024a57600080fd5b818801915088601f83011261025e57600080fd5b81358181111561026d57600080fd5b89602082850101111561027f57600080fd5b602083019550809450505050610297606087016101d6565b90509295509295909350565b838152600060208415158184015260606040840152835180606085015260005b818110156102df578581018301518582016080015282016102c3565b818111156102f1576000608083870101525b50601f01601f19169290920160800195945050505050565b60008282101561032957634e487b7160e01b600052601160045260246000fd5b500390565b634e487b7160e01b600052602160045260246000fdfea164736f6c6343000807000a",
  "devdoc": {
    "author": "Richard Meissner - <richard@gnosis.pm>",
    "kind": "dev",
    "methods": {},
    "title": "Simulate Transaction Accessor - can be used with StorageAccessible to simulate Safe transactions",
    "version": 1
  },
  "userdoc": {
    "kind": "user",
    "methods": {},
    "version": 1
  },
  "storageLayout": {
    "storage": [],
    "types": null
  }
}